{
  "_format": "hh-sol-artifact-1",
  "contractName": "MyETHDAO",
  "sourceName": "contracts/MyETHDAO.sol",
  "abi": [
    {
      "inputs": [],
      "stateMutability": "nonpayable",
      "type": "constructor"
    },
    {
      "anonymous": false,
      "inputs": [
        {
          "indexed": true,
          "internalType": "address",
          "name": "user",
          "type": "address"
        },
        {
          "indexed": false,
          "internalType": "uint256",
          "name": "amount",
          "type": "uint256"
        }
      ],
      "name": "Deposited",
      "type": "event"
    },
    {
      "anonymous": false,
      "inputs": [
        {
          "indexed": false,
          "internalType": "uint256",
          "name": "proposalId",
          "type": "uint256"
        },
        {
          "indexed": false,
          "internalType": "bool",
          "name": "passed",
          "type": "bool"
        }
      ],
      "name": "Executed",
      "type": "event"
    },
    {
      "anonymous": false,
      "inputs": [
        {
          "indexed": false,
          "internalType": "uint256",
          "name": "id",
          "type": "uint256"
        },
        {
          "indexed": false,
          "internalType": "string",
          "name": "description",
          "type": "string"
        }
      ],
      "name": "ProposalCreated",
      "type": "event"
    },
    {
      "anonymous": false,
      "inputs": [
        {
          "indexed": false,
          "internalType": "uint256",
          "name": "proposalId",
          "type": "uint256"
        },
        {
          "indexed": false,
          "internalType": "address",
          "name": "voter",
          "type": "address"
        },
        {
          "indexed": false,
          "internalType": "bool",
          "name": "support",
          "type": "bool"
        },
        {
          "indexed": false,
          "internalType": "uint256",
          "name": "votes",
          "type": "uint256"
        }
      ],
      "name": "Voted",
      "type": "event"
    },
    {
      "anonymous": false,
      "inputs": [
        {
          "indexed": true,
          "internalType": "address",
          "name": "user",
          "type": "address"
        },
        {
          "indexed": false,
          "internalType": "string",
          "name": "message",
          "type": "string"
        }
      ],
      "name": "Withdrawn",
      "type": "event"
    },
    {
      "inputs": [
        {
          "internalType": "string",
          "name": "_title",
          "type": "string"
        },
        {
          "internalType": "string",
          "name": "_summary",
          "type": "string"
        },
        {
          "internalType": "uint256",
          "name": "_ethAmount",
          "type": "uint256"
        },
        {
          "internalType": "string",
          "name": "_aboutOwner",
          "type": "string"
        }
      ],
      "name": "createProposal",
      "outputs": [],
      "stateMutability": "nonpayable",
      "type": "function"
    },
    {
      "inputs": [],
      "name": "deposit",
      "outputs": [],
      "stateMutability": "payable",
      "type": "function"
    },
    {
      "inputs": [],
      "name": "donateToTreasury",
      "outputs": [],
      "stateMutability": "payable",
      "type": "function"
    },
    {
      "inputs": [
        {
          "internalType": "uint256",
          "name": "_proposalId",
          "type": "uint256"
        }
      ],
      "name": "executeProposal",
      "outputs": [],
      "stateMutability": "nonpayable",
      "type": "function"
    },
    {
      "inputs": [],
      "name": "feeBasisPoints",
      "outputs": [
        {
          "internalType": "uint256",
          "name": "",
          "type": "uint256"
        }
      ],
      "stateMutability": "view",
      "type": "function"
    },
    {
      "inputs": [
        {
          "internalType": "uint256",
          "name": "_id",
          "type": "uint256"
        }
      ],
      "name": "getProposal",
      "outputs": [
        {
          "internalType": "string",
          "name": "description",
          "type": "string"
        },
        {
          "internalType": "string",
          "name": "summary",
          "type": "string"
        },
        {
          "internalType": "uint256",
          "name": "ethAmount",
          "type": "uint256"
        },
        {
          "internalType": "string",
          "name": "aboutOwner",
          "type": "string"
        },
        {
          "internalType": "address",
          "name": "recipient",
          "type": "address"
        },
        {
          "internalType": "uint256",
          "name": "deadline",
          "type": "uint256"
        },
        {
          "internalType": "uint256",
          "name": "votesFor",
          "type": "uint256"
        },
        {
          "internalType": "uint256",
          "name": "votesAgainst",
          "type": "uint256"
        },
        {
          "internalType": "bool",
          "name": "executed",
          "type": "bool"
        }
      ],
      "stateMutability": "view",
      "type": "function"
    },
    {
      "inputs": [],
      "name": "owner",
      "outputs": [
        {
          "internalType": "address",
          "name": "",
          "type": "address"
        }
      ],
      "stateMutability": "view",
      "type": "function"
    },
    {
      "inputs": [],
      "name": "proposalCount",
      "outputs": [
        {
          "internalType": "uint256",
          "name": "",
          "type": "uint256"
        }
      ],
      "stateMutability": "view",
      "type": "function"
    },
    {
      "inputs": [
        {
          "internalType": "uint256",
          "name": "",
          "type": "uint256"
        }
      ],
      "name": "proposals",
      "outputs": [
        {
          "internalType": "string",
          "name": "title",
          "type": "string"
        },
        {
          "internalType": "string",
          "name": "summary",
          "type": "string"
        },
        {
          "internalType": "uint256",
          "name": "ethAmount",
          "type": "uint256"
        },
        {
          "internalType": "string",
          "name": "aboutOwner",
          "type": "string"
        },
        {
          "internalType": "address",
          "name": "recipient",
          "type": "address"
        },
        {
          "internalType": "uint256",
          "name": "deadline",
          "type": "uint256"
        },
        {
          "internalType": "uint256",
          "name": "votesFor",
          "type": "uint256"
        },
        {
          "internalType": "uint256",
          "name": "votesAgainst",
          "type": "uint256"
        },
        {
          "internalType": "bool",
          "name": "executed",
          "type": "bool"
        }
      ],
      "stateMutability": "view",
      "type": "function"
    },
    {
      "inputs": [
        {
          "internalType": "address",
          "name": "",
          "type": "address"
        }
      ],
      "name": "stakes",
      "outputs": [
        {
          "internalType": "uint256",
          "name": "",
          "type": "uint256"
        }
      ],
      "stateMutability": "view",
      "type": "function"
    },
    {
      "inputs": [],
      "name": "treasuryBalance",
      "outputs": [
        {
          "internalType": "uint256",
          "name": "",
          "type": "uint256"
        }
      ],
      "stateMutability": "view",
      "type": "function"
    },
    {
      "inputs": [
        {
          "internalType": "uint256",
          "name": "_proposalId",
          "type": "uint256"
        },
        {
          "internalType": "bool",
          "name": "support",
          "type": "bool"
        }
      ],
      "name": "vote",
      "outputs": [],
      "stateMutability": "nonpayable",
      "type": "function"
    },
    {
      "inputs": [],
      "name": "withdraw",
      "outputs": [],
      "stateMutability": "nonpayable",
      "type": "function"
    }
  ],
  "bytecode": "0x608060405260018055348015601357600080fd5b50336000806101000a81548173ffffffffffffffffffffffffffffffffffffffff021916908373ffffffffffffffffffffffffffffffffffffffff160217905550612462806100636000396000f3fe6080604052600436106100c25760003560e01c80638da5cb5b1161007f578063c9d27afe11610059578063c9d27afe14610259578063d0e30db014610282578063da35c6641461028c578063e1bfbcbb146102b7576100c2565b80638da5cb5b146101be578063b8606eef146101e9578063c7f758a814610214576100c2565b8063013cf08b146100c75780630d61b5191461010c57806316934fc414610135578063313dab20146101725780633ccfd60b1461019d57806377462e03146101b4575b600080fd5b3480156100d357600080fd5b506100ee60048036038101906100e991906112e2565b6102e0565b6040516101039998979695949392919061140a565b60405180910390f35b34801561011857600080fd5b50610133600480360381019061012e91906112e2565b6104f3565b005b34801561014157600080fd5b5061015c600480360381019061015791906114d8565b610796565b6040516101699190611505565b60405180910390f35b34801561017e57600080fd5b506101876107ae565b6040516101949190611505565b60405180910390f35b3480156101a957600080fd5b506101b26107b4565b005b6101bc610849565b005b3480156101ca57600080fd5b506101d36109a6565b6040516101e09190611520565b60405180910390f35b3480156101f557600080fd5b506101fe6109ca565b60405161020b9190611505565b60405180910390f35b34801561022057600080fd5b5061023b600480360381019061023691906112e2565b6109d0565b6040516102509998979695949392919061140a565b60405180910390f35b34801561026557600080fd5b50610280600480360381019061027b9190611567565b610c10565b005b61028a610eba565b005b34801561029857600080fd5b506102a1610faa565b6040516102ae9190611505565b60405180910390f35b3480156102c357600080fd5b506102de60048036038101906102d991906116dc565b610fb0565b005b6003602052806000526040600020600091509050806000018054610303906117c6565b80601f016020809104026020016040519081016040528092919081815260200182805461032f906117c6565b801561037c5780601f106103515761010080835404028352916020019161037c565b820191906000526020600020905b81548152906001019060200180831161035f57829003601f168201915b505050505090806001018054610391906117c6565b80601f01602080910402602001604051908101604052809291908181526020018280546103bd906117c6565b801561040a5780601f106103df5761010080835404028352916020019161040a565b820191906000526020600020905b8154815290600101906020018083116103ed57829003601f168201915b505050505090806002015490806003018054610425906117c6565b80601f0160208091040260200160405190810160405280929190818152602001828054610451906117c6565b801561049e5780601f106104735761010080835404028352916020019161049e565b820191906000526020600020905b81548152906001019060200180831161048157829003601f168201915b5050505050908060040160009054906101000a900473ffffffffffffffffffffffffffffffffffffffff16908060050154908060060154908060070154908060080160009054906101000a900460ff16905089565b60006003600083815260200190815260200160002090508060050154421015610551576040517f08c379a000000000000000000000000000000000000000000000000000000000815260040161054890611843565b60405180910390fd5b8060080160009054906101000a900460ff16156105a3576040517f08c379a000000000000000000000000000000000000000000000000000000000815260040161059a906118af565b60405180910390fd5b60018160080160006101000a81548160ff0219169083151502179055506000816007015482600601541190507ffa9788a6b2f6e96ab2d85a5b4ed3668e72b91e06c5eec6b3e87afd95fe53686383826040516106009291906118cf565b60405180910390a18015610791578160020154471015610655576040517f08c379a000000000000000000000000000000000000000000000000000000000815260040161064c90611944565b60405180910390fd5b8160020154600554101561069e576040517f08c379a0000000000000000000000000000000000000000000000000000000008152600401610695906119b0565b60405180910390fd5b8160020154600560008282546106b491906119ff565b9250508190555060008260040160009054906101000a900473ffffffffffffffffffffffffffffffffffffffff1673ffffffffffffffffffffffffffffffffffffffff16836002015460405161070990611a64565b60006040518083038185875af1925050503d8060008114610746576040519150601f19603f3d011682016040523d82523d6000602084013e61074b565b606091505b505090508061078f576040517f08c379a000000000000000000000000000000000000000000000000000000000815260040161078690611ac5565b60405180910390fd5b505b505050565b60046020528060005260406000206000915090505481565b60055481565b3373ffffffffffffffffffffffffffffffffffffffff166108fc479081150290604051600060405180830381858888f193505050501580156107fa573d6000803e3d6000fd5b503373ffffffffffffffffffffffffffffffffffffffff167fbd5db3365d7536129a956b8ed83c01b025489fa82650e7c5d916f7e5e3a4ea7b60405161083f90611b31565b60405180910390a2565b6000341161088c576040517f08c379a000000000000000000000000000000000000000000000000000000000815260040161088390611b9d565b60405180910390fd5b60006127106001543461089f9190611bbd565b6108a99190611c2e565b9050600081346108b991906119ff565b905060008060009054906101000a900473ffffffffffffffffffffffffffffffffffffffff1673ffffffffffffffffffffffffffffffffffffffff168360405161090290611a64565b60006040518083038185875af1925050503d806000811461093f576040519150601f19603f3d011682016040523d82523d6000602084013e610944565b606091505b5050905080610988576040517f08c379a000000000000000000000000000000000000000000000000000000000815260040161097f90611cab565b60405180910390fd5b816005600082825461099a9190611ccb565b92505081905550505050565b60008054906101000a900473ffffffffffffffffffffffffffffffffffffffff1681565b60015481565b60608060006060600080600080600080600360008c8152602001908152602001600020905080600001816001018260020154836003018460040160009054906101000a900473ffffffffffffffffffffffffffffffffffffffff168560050154866006015487600701548860080160009054906101000a900460ff16888054610a58906117c6565b80601f0160208091040260200160405190810160405280929190818152602001828054610a84906117c6565b8015610ad15780601f10610aa657610100808354040283529160200191610ad1565b820191906000526020600020905b815481529060010190602001808311610ab457829003601f168201915b50505050509850878054610ae4906117c6565b80601f0160208091040260200160405190810160405280929190818152602001828054610b10906117c6565b8015610b5d5780601f10610b3257610100808354040283529160200191610b5d565b820191906000526020600020905b815481529060010190602001808311610b4057829003601f168201915b50505050509750858054610b70906117c6565b80601f0160208091040260200160405190810160405280929190818152602001828054610b9c906117c6565b8015610be95780601f10610bbe57610100808354040283529160200191610be9565b820191906000526020600020905b815481529060010190602001808311610bcc57829003601f168201915b50505050509550995099509950995099509950995099509950509193959799909294969850565b600060036000848152602001908152602001600020905080600501544210610c6d576040517f08c379a0000000000000000000000000000000000000000000000000000000008152600401610c6490611d4b565b60405180910390fd5b8060090160003373ffffffffffffffffffffffffffffffffffffffff1673ffffffffffffffffffffffffffffffffffffffff16815260200190815260200160002060009054906101000a900460ff1615610cfc576040517f08c379a0000000000000000000000000000000000000000000000000000000008152600401610cf390611db7565b60405180910390fd5b662386f26fc10000600460003373ffffffffffffffffffffffffffffffffffffffff1673ffffffffffffffffffffffffffffffffffffffff168152602001908152602001600020541015610d85576040517f08c379a0000000000000000000000000000000000000000000000000000000008152600401610d7c90611e23565b60405180910390fd5b6000662386f26fc10000600460003373ffffffffffffffffffffffffffffffffffffffff1673ffffffffffffffffffffffffffffffffffffffff16815260200190815260200160002054610dd99190611c2e565b905060018260090160003373ffffffffffffffffffffffffffffffffffffffff1673ffffffffffffffffffffffffffffffffffffffff16815260200190815260200160002060006101000a81548160ff0219169083151502179055508215610e5b5780826006016000828254610e4f9190611ccb565b92505081905550610e77565b80826007016000828254610e6f9190611ccb565b925050819055505b7f7c2de587c00d75474a0c6c6fa96fd3b45dc974cd4e8a75f712bb84c950dce1b584338584604051610eac9493929190611e43565b60405180910390a150505050565b662386f26fc10000341015610f04576040517f08c379a0000000000000000000000000000000000000000000000000000000008152600401610efb90611ed4565b60405180910390fd5b34600460003373ffffffffffffffffffffffffffffffffffffffff1673ffffffffffffffffffffffffffffffffffffffff1681526020019081526020016000206000828254610f539190611ccb565b925050819055503373ffffffffffffffffffffffffffffffffffffffff167f2da466a7b24304f47e87fa2e1e5a81b9831ce54fec19055ce277ca2f39ba42c434604051610fa09190611505565b60405180910390a2565b60025481565b67016345785d8a0000600460003373ffffffffffffffffffffffffffffffffffffffff1673ffffffffffffffffffffffffffffffffffffffff16815260200190815260200160002054101561103a576040517f08c379a000000000000000000000000000000000000000000000000000000000815260040161103190611f40565b60405180910390fd5b60055482111561107f576040517f08c379a0000000000000000000000000000000000000000000000000000000008152600401611076906119b0565b60405180910390fd5b600082116110c2576040517f08c379a00000000000000000000000000000000000000000000000000000000081526004016110b990611fd2565b60405180910390fd5b6000845111611106576040517f08c379a00000000000000000000000000000000000000000000000000000000081526004016110fd9061203e565b60405180910390fd5b600083511161114a576040517f08c379a0000000000000000000000000000000000000000000000000000000008152600401611141906120aa565b60405180910390fd5b600081511161118e576040517f08c379a000000000000000000000000000000000000000000000000000000000815260040161118590612116565b60405180910390fd5b600260008154809291906111a190612136565b919050555060006003600060025481526020019081526020016000209050848160000190816111d0919061232a565b50838160010190816111e2919061232a565b50828160020181905550818160030190816111fd919061232a565b50338160040160006101000a81548173ffffffffffffffffffffffffffffffffffffffff021916908373ffffffffffffffffffffffffffffffffffffffff16021790555060b44261124e9190611ccb565b81600501819055507f9c770c289ab5bf7e57cb1d23c8ceae993aea46eb64847072fd3d78ca60d3e432600254866040516112899291906123fc565b60405180910390a15050505050565b6000604051905090565b600080fd5b600080fd5b6000819050919050565b6112bf816112ac565b81146112ca57600080fd5b50565b6000813590506112dc816112b6565b92915050565b6000602082840312156112f8576112f76112a2565b5b6000611306848285016112cd565b91505092915050565b600081519050919050565b600082825260208201905092915050565b60005b8381101561134957808201518184015260208101905061132e565b60008484015250505050565b6000601f19601f8301169050919050565b60006113718261130f565b61137b818561131a565b935061138b81856020860161132b565b61139481611355565b840191505092915050565b6113a8816112ac565b82525050565b600073ffffffffffffffffffffffffffffffffffffffff82169050919050565b60006113d9826113ae565b9050919050565b6113e9816113ce565b82525050565b60008115159050919050565b611404816113ef565b82525050565b6000610120820190508181036000830152611425818c611366565b90508181036020830152611439818b611366565b9050611448604083018a61139f565b818103606083015261145a8189611366565b905061146960808301886113e0565b61147660a083018761139f565b61148360c083018661139f565b61149060e083018561139f565b61149e6101008301846113fb565b9a9950505050505050505050565b6114b5816113ce565b81146114c057600080fd5b50565b6000813590506114d2816114ac565b92915050565b6000602082840312156114ee576114ed6112a2565b5b60006114fc848285016114c3565b91505092915050565b600060208201905061151a600083018461139f565b92915050565b600060208201905061153560008301846113e0565b92915050565b611544816113ef565b811461154f57600080fd5b50565b6000813590506115618161153b565b92915050565b6000806040838503121561157e5761157d6112a2565b5b600061158c858286016112cd565b925050602061159d85828601611552565b9150509250929050565b600080fd5b600080fd5b7f4e487b7100000000000000000000000000000000000000000000000000000000600052604160045260246000fd5b6115e982611355565b810181811067ffffffffffffffff82111715611608576116076115b1565b5b80604052505050565b600061161b611298565b905061162782826115e0565b919050565b600067ffffffffffffffff821115611647576116466115b1565b5b61165082611355565b9050602081019050919050565b82818337600083830152505050565b600061167f61167a8461162c565b611611565b90508281526020810184848401111561169b5761169a6115ac565b5b6116a684828561165d565b509392505050565b600082601f8301126116c3576116c26115a7565b5b81356116d384826020860161166c565b91505092915050565b600080600080608085870312156116f6576116f56112a2565b5b600085013567ffffffffffffffff811115611714576117136112a7565b5b611720878288016116ae565b945050602085013567ffffffffffffffff811115611741576117406112a7565b5b61174d878288016116ae565b935050604061175e878288016112cd565b925050606085013567ffffffffffffffff81111561177f5761177e6112a7565b5b61178b878288016116ae565b91505092959194509250565b7f4e487b7100000000000000000000000000000000000000000000000000000000600052602260045260246000fd5b600060028204905060018216806117de57607f821691505b6020821081036117f1576117f0611797565b5b50919050565b7f566f74696e67206e6f7420656e64656400000000000000000000000000000000600082015250565b600061182d60108361131a565b9150611838826117f7565b602082019050919050565b6000602082019050818103600083015261185c81611820565b9050919050565b7f416c726561647920657865637574656400000000000000000000000000000000600082015250565b600061189960108361131a565b91506118a482611863565b602082019050919050565b600060208201905081810360008301526118c88161188c565b9050919050565b60006040820190506118e4600083018561139f565b6118f160208301846113fb565b9392505050565b7f496e73756666696369656e742044414f2066756e647300000000000000000000600082015250565b600061192e60168361131a565b9150611939826118f8565b602082019050919050565b6000602082019050818103600083015261195d81611921565b9050919050565b7f496e73756666696369656e742074726561737572792066756e64730000000000600082015250565b600061199a601b8361131a565b91506119a582611964565b602082019050919050565b600060208201905081810360008301526119c98161198d565b9050919050565b7f4e487b7100000000000000000000000000000000000000000000000000000000600052601160045260246000fd5b6000611a0a826112ac565b9150611a15836112ac565b9250828203905081811115611a2d57611a2c6119d0565b5b92915050565b600081905092915050565b50565b6000611a4e600083611a33565b9150611a5982611a3e565b600082019050919050565b6000611a6f82611a41565b9150819050919050565b7f5472616e73666572206661696c65640000000000000000000000000000000000600082015250565b6000611aaf600f8361131a565b9150611aba82611a79565b602082019050919050565b60006020820190508181036000830152611ade81611aa2565b9050919050565b7f57697468647261776e20616c6c2062616c616e63650000000000000000000000600082015250565b6000611b1b60158361131a565b9150611b2682611ae5565b602082019050919050565b60006020820190508181036000830152611b4a81611b0e565b9050919050565b7f4e6f204554482073656e74000000000000000000000000000000000000000000600082015250565b6000611b87600b8361131a565b9150611b9282611b51565b602082019050919050565b60006020820190508181036000830152611bb681611b7a565b9050919050565b6000611bc8826112ac565b9150611bd3836112ac565b9250828202611be1816112ac565b91508282048414831517611bf857611bf76119d0565b5b5092915050565b7f4e487b7100000000000000000000000000000000000000000000000000000000600052601260045260246000fd5b6000611c39826112ac565b9150611c44836112ac565b925082611c5457611c53611bff565b5b828204905092915050565b7f466565207472616e73666572206661696c656400000000000000000000000000600082015250565b6000611c9560138361131a565b9150611ca082611c5f565b602082019050919050565b60006020820190508181036000830152611cc481611c88565b9050919050565b6000611cd6826112ac565b9150611ce1836112ac565b9250828201905080821115611cf957611cf86119d0565b5b92915050565b7f566f74696e6720656e6465640000000000000000000000000000000000000000600082015250565b6000611d35600c8361131a565b9150611d4082611cff565b602082019050919050565b60006020820190508181036000830152611d6481611d28565b9050919050565b7f416c726561647920766f74656400000000000000000000000000000000000000600082015250565b6000611da1600d8361131a565b9150611dac82611d6b565b602082019050919050565b60006020820190508181036000830152611dd081611d94565b9050919050565b7f5374616b65206d696e20302e3031204554480000000000000000000000000000600082015250565b6000611e0d60128361131a565b9150611e1882611dd7565b602082019050919050565b60006020820190508181036000830152611e3c81611e00565b9050919050565b6000608082019050611e58600083018761139f565b611e6560208301866113e0565b611e7260408301856113fb565b611e7f606083018461139f565b95945050505050565b7f4d696e20302e3031204554480000000000000000000000000000000000000000600082015250565b6000611ebe600c8361131a565b9150611ec982611e88565b602082019050919050565b60006020820190508181036000830152611eed81611eb1565b9050919050565b7f4e656564206174206c6561737420302e303520455448207374616b6564000000600082015250565b6000611f2a601d8361131a565b9150611f3582611ef4565b602082019050919050565b60006020820190508181036000830152611f5981611f1d565b9050919050565b7f50726f706f73616c20616d6f756e74206d75737420626520677265617465722060008201527f7468616e20300000000000000000000000000000000000000000000000000000602082015250565b6000611fbc60268361131a565b9150611fc782611f60565b604082019050919050565b60006020820190508181036000830152611feb81611faf565b9050919050565b7f5469746c652063616e6e6f7420626520656d7074790000000000000000000000600082015250565b600061202860158361131a565b915061203382611ff2565b602082019050919050565b600060208201905081810360008301526120578161201b565b9050919050565b7f53756d6d6172792063616e6e6f7420626520656d707479000000000000000000600082015250565b600061209460178361131a565b915061209f8261205e565b602082019050919050565b600060208201905081810360008301526120c381612087565b9050919050565b7f41626f7574206f776e65722063616e6e6f7420626520656d7074790000000000600082015250565b6000612100601b8361131a565b915061210b826120ca565b602082019050919050565b6000602082019050818103600083015261212f816120f3565b9050919050565b6000612141826112ac565b91507fffffffffffffffffffffffffffffffffffffffffffffffffffffffffffffffff8203612173576121726119d0565b5b600182019050919050565b60008190508160005260206000209050919050565b60006020601f8301049050919050565b600082821b905092915050565b6000600883026121e07fffffffffffffffffffffffffffffffffffffffffffffffffffffffffffffffff826121a3565b6121ea86836121a3565b95508019841693508086168417925050509392505050565b6000819050919050565b600061222761222261221d846112ac565b612202565b6112ac565b9050919050565b6000819050919050565b6122418361220c565b61225561224d8261222e565b8484546121b0565b825550505050565b600090565b61226a61225d565b612275818484612238565b505050565b5b818110156122995761228e600082612262565b60018101905061227b565b5050565b601f8211156122de576122af8161217e565b6122b884612193565b810160208510156122c7578190505b6122db6122d385612193565b83018261227a565b50505b505050565b600082821c905092915050565b6000612301600019846008026122e3565b1980831691505092915050565b600061231a83836122f0565b9150826002028217905092915050565b6123338261130f565b67ffffffffffffffff81111561234c5761234b6115b1565b5b61235682546117c6565b61236182828561229d565b600060209050601f8311600181146123945760008415612382578287015190505b61238c858261230e565b8655506123f4565b601f1984166123a28661217e565b60005b828110156123ca578489015182556001820191506020850194506020810190506123a5565b868310156123e757848901516123e3601f8916826122f0565b8355505b6001600288020188555050505b505050505050565b6000604082019050612411600083018561139f565b81810360208301526124238184611366565b9050939250505056fea26469706673582212203c00f471c91de499ac72cbf209b03584eeb0298eae9792aced99e45832957ce864736f6c634300081c0033",
  "linkReferences": {},
  "deployedLinkReferences": {}
}