{
  "_format": "hh-sol-artifact-1",
  "contractName": "MyETHDAO",
  "sourceName": "contracts/MyETHDAO.sol",
  "abi": [
    {
      "inputs": [],
      "stateMutability": "nonpayable",
      "type": "constructor"
    },
    {
      "anonymous": false,
      "inputs": [
        {
          "indexed": true,
          "internalType": "address",
          "name": "user",
          "type": "address"
        },
        {
          "indexed": false,
          "internalType": "uint256",
          "name": "amount",
          "type": "uint256"
        }
      ],
      "name": "Deposited",
      "type": "event"
    },
    {
      "anonymous": false,
      "inputs": [
        {
          "indexed": false,
          "internalType": "uint256",
          "name": "proposalId",
          "type": "uint256"
        },
        {
          "indexed": false,
          "internalType": "bool",
          "name": "passed",
          "type": "bool"
        }
      ],
      "name": "Executed",
      "type": "event"
    },
    {
      "anonymous": false,
      "inputs": [
        {
          "indexed": false,
          "internalType": "uint256",
          "name": "id",
          "type": "uint256"
        },
        {
          "indexed": false,
          "internalType": "string",
          "name": "description",
          "type": "string"
        }
      ],
      "name": "ProposalCreated",
      "type": "event"
    },
    {
      "anonymous": false,
      "inputs": [
        {
          "indexed": false,
          "internalType": "uint256",
          "name": "proposalId",
          "type": "uint256"
        },
        {
          "indexed": false,
          "internalType": "address",
          "name": "voter",
          "type": "address"
        },
        {
          "indexed": false,
          "internalType": "bool",
          "name": "support",
          "type": "bool"
        },
        {
          "indexed": false,
          "internalType": "uint256",
          "name": "votes",
          "type": "uint256"
        }
      ],
      "name": "Voted",
      "type": "event"
    },
    {
      "anonymous": false,
      "inputs": [
        {
          "indexed": true,
          "internalType": "address",
          "name": "user",
          "type": "address"
        },
        {
          "indexed": false,
          "internalType": "string",
          "name": "message",
          "type": "string"
        }
      ],
      "name": "Withdrawn",
      "type": "event"
    },
    {
      "inputs": [
        {
          "internalType": "string",
          "name": "_title",
          "type": "string"
        },
        {
          "internalType": "string",
          "name": "_summary",
          "type": "string"
        },
        {
          "internalType": "uint256",
          "name": "_ethAmount",
          "type": "uint256"
        },
        {
          "internalType": "string",
          "name": "_aboutOwner",
          "type": "string"
        }
      ],
      "name": "createProposal",
      "outputs": [],
      "stateMutability": "nonpayable",
      "type": "function"
    },
    {
      "inputs": [],
      "name": "deposit",
      "outputs": [],
      "stateMutability": "payable",
      "type": "function"
    },
    {
      "inputs": [],
      "name": "donateToTreasury",
      "outputs": [],
      "stateMutability": "payable",
      "type": "function"
    },
    {
      "inputs": [
        {
          "internalType": "uint256",
          "name": "_proposalId",
          "type": "uint256"
        }
      ],
      "name": "executeProposal",
      "outputs": [],
      "stateMutability": "nonpayable",
      "type": "function"
    },
    {
      "inputs": [],
      "name": "feeBasisPoints",
      "outputs": [
        {
          "internalType": "uint256",
          "name": "",
          "type": "uint256"
        }
      ],
      "stateMutability": "view",
      "type": "function"
    },
    {
      "inputs": [
        {
          "internalType": "uint256",
          "name": "_id",
          "type": "uint256"
        }
      ],
      "name": "getProposal",
      "outputs": [
        {
          "internalType": "string",
          "name": "description",
          "type": "string"
        },
        {
          "internalType": "string",
          "name": "summary",
          "type": "string"
        },
        {
          "internalType": "uint256",
          "name": "ethAmount",
          "type": "uint256"
        },
        {
          "internalType": "string",
          "name": "aboutOwner",
          "type": "string"
        },
        {
          "internalType": "address",
          "name": "recipient",
          "type": "address"
        },
        {
          "internalType": "uint256",
          "name": "deadline",
          "type": "uint256"
        },
        {
          "internalType": "uint256",
          "name": "votesFor",
          "type": "uint256"
        },
        {
          "internalType": "uint256",
          "name": "votesAgainst",
          "type": "uint256"
        },
        {
          "internalType": "bool",
          "name": "executed",
          "type": "bool"
        }
      ],
      "stateMutability": "view",
      "type": "function"
    },
    {
      "inputs": [],
      "name": "owner",
      "outputs": [
        {
          "internalType": "address",
          "name": "",
          "type": "address"
        }
      ],
      "stateMutability": "view",
      "type": "function"
    },
    {
      "inputs": [],
      "name": "proposalCount",
      "outputs": [
        {
          "internalType": "uint256",
          "name": "",
          "type": "uint256"
        }
      ],
      "stateMutability": "view",
      "type": "function"
    },
    {
      "inputs": [
        {
          "internalType": "uint256",
          "name": "",
          "type": "uint256"
        }
      ],
      "name": "proposals",
      "outputs": [
        {
          "internalType": "string",
          "name": "title",
          "type": "string"
        },
        {
          "internalType": "string",
          "name": "summary",
          "type": "string"
        },
        {
          "internalType": "uint256",
          "name": "ethAmount",
          "type": "uint256"
        },
        {
          "internalType": "string",
          "name": "aboutOwner",
          "type": "string"
        },
        {
          "internalType": "address",
          "name": "recipient",
          "type": "address"
        },
        {
          "internalType": "uint256",
          "name": "deadline",
          "type": "uint256"
        },
        {
          "internalType": "uint256",
          "name": "votesFor",
          "type": "uint256"
        },
        {
          "internalType": "uint256",
          "name": "votesAgainst",
          "type": "uint256"
        },
        {
          "internalType": "bool",
          "name": "executed",
          "type": "bool"
        }
      ],
      "stateMutability": "view",
      "type": "function"
    },
    {
      "inputs": [
        {
          "internalType": "address",
          "name": "",
          "type": "address"
        }
      ],
      "name": "stakes",
      "outputs": [
        {
          "internalType": "uint256",
          "name": "",
          "type": "uint256"
        }
      ],
      "stateMutability": "view",
      "type": "function"
    },
    {
      "inputs": [],
      "name": "treasuryBalance",
      "outputs": [
        {
          "internalType": "uint256",
          "name": "",
          "type": "uint256"
        }
      ],
      "stateMutability": "view",
      "type": "function"
    },
    {
      "inputs": [
        {
          "internalType": "uint256",
          "name": "_proposalId",
          "type": "uint256"
        },
        {
          "internalType": "bool",
          "name": "support",
          "type": "bool"
        }
      ],
      "name": "vote",
      "outputs": [],
      "stateMutability": "nonpayable",
      "type": "function"
    },
    {
      "inputs": [],
      "name": "withdraw",
      "outputs": [],
      "stateMutability": "nonpayable",
      "type": "function"
    }
  ],
  "bytecode": "0x60a0604052348015600f57600080fd5b5033608052608051611501610036600039600081816101a7015261082101526115016000f3fe6080604052600436106100c25760003560e01c80638da5cb5b1161007f578063c9d27afe11610059578063c9d27afe14610216578063d0e30db014610236578063da35c6641461023e578063e1bfbcbb1461025457600080fd5b80638da5cb5b14610195578063b8606eef146101e1578063c7f758a8146101f657600080fd5b8063013cf08b146100c75780630d61b5191461010557806316934fc414610127578063313dab20146101625780633ccfd60b1461017857806377462e031461018d575b600080fd5b3480156100d357600080fd5b506100e76100e236600461104e565b610274565b6040516100fc999897969594939291906110ad565b60405180910390f35b34801561011157600080fd5b5061012561012036600461104e565b610460565b005b34801561013357600080fd5b50610154610142366004611127565b60026020526000908152604090205481565b6040519081526020016100fc565b34801561016e57600080fd5b5061015460035481565b34801561018457600080fd5b506101256106bf565b6101256107b5565b3480156101a157600080fd5b506101c97f000000000000000000000000000000000000000000000000000000000000000081565b6040516001600160a01b0390911681526020016100fc565b3480156101ed57600080fd5b50610154600181565b34801561020257600080fd5b506100e761021136600461104e565b6108f2565b34801561022257600080fd5b50610125610231366004611157565b610b25565b610125610cee565b34801561024a57600080fd5b5061015460005481565b34801561026057600080fd5b5061012561026f366004611231565b610d8f565b60016020526000908152604090208054819061028f906112cf565b80601f01602080910402602001604051908101604052809291908181526020018280546102bb906112cf565b80156103085780601f106102dd57610100808354040283529160200191610308565b820191906000526020600020905b8154815290600101906020018083116102eb57829003601f168201915b50505050509080600101805461031d906112cf565b80601f0160208091040260200160405190810160405280929190818152602001828054610349906112cf565b80156103965780601f1061036b57610100808354040283529160200191610396565b820191906000526020600020905b81548152906001019060200180831161037957829003601f168201915b5050505050908060020154908060030180546103b1906112cf565b80601f01602080910402602001604051908101604052809291908181526020018280546103dd906112cf565b801561042a5780601f106103ff5761010080835404028352916020019161042a565b820191906000526020600020905b81548152906001019060200180831161040d57829003601f168201915b505050600484015460058501546006860154600787015460089097015495966001600160a01b0390931695919450925060ff1689565b600081815260016020526040902060058101544210156104ba5760405162461bcd60e51b815260206004820152601060248201526f159bdd1a5b99c81b9bdd08195b99195960821b60448201526064015b60405180910390fd5b600881015460ff16156105025760405162461bcd60e51b815260206004820152601060248201526f105b1c9958591e48195e1958dd5d195960821b60448201526064016104b1565b60088101805460ff1916600117905560078101546006820154604080518581529190921060208201819052917ffa9788a6b2f6e96ab2d85a5b4ed3668e72b91e06c5eec6b3e87afd95fe536863910160405180910390a180156106ba5781600201544710156105ac5760405162461bcd60e51b8152602060048201526016602482015275496e73756666696369656e742044414f2066756e647360501b60448201526064016104b1565b816002015460035410156106025760405162461bcd60e51b815260206004820152601b60248201527f496e73756666696369656e742074726561737572792066756e6473000000000060448201526064016104b1565b816002015460036000828254610618919061131f565b9091555050600482015460028301546040516000926001600160a01b031691908381818185875af1925050503d8060008114610670576040519150601f19603f3d011682016040523d82523d6000602084013e610675565b606091505b50509050806106b85760405162461bcd60e51b815260206004820152600f60248201526e151c985b9cd9995c8819985a5b1959608a1b60448201526064016104b1565b505b505050565b33600090815260026020526040902054806107135760405162461bcd60e51b81526020600482015260146024820152734e6f207374616b6520746f20776974686472617760601b60448201526064016104b1565b336000818152600260205260408082208290555183156108fc0291849190818181858888f1935050505015801561074e573d6000803e3d6000fd5b50336001600160a01b03167fbd5db3365d7536129a956b8ed83c01b025489fa82650e7c5d916f7e5e3a4ea7b6040516107aa906020808252600f908201526e29ba30b5b2903bb4ba34323930bbb760891b604082015260600190565b60405180910390a250565b600034116107f35760405162461bcd60e51b815260206004820152600b60248201526a139bc8115512081cd95b9d60aa1b60448201526064016104b1565b6000612710610803600134611338565b61080d919061134f565b9050600061081b823461131f565b905060007f00000000000000000000000000000000000000000000000000000000000000006001600160a01b03168360405160006040518083038185875af1925050503d806000811461088a576040519150601f19603f3d011682016040523d82523d6000602084013e61088f565b606091505b50509050806108d65760405162461bcd60e51b8152602060048201526013602482015272119959481d1c985b9cd9995c8819985a5b1959606a1b60448201526064016104b1565b81600360008282546108e89190611371565b9091555050505050565b60608060006060600080600080600080600160008c8152602001908152602001600020905080600001816001018260020154836003018460040160009054906101000a90046001600160a01b03168560050154866006015487600701548860080160009054906101000a900460ff1688805461096d906112cf565b80601f0160208091040260200160405190810160405280929190818152602001828054610999906112cf565b80156109e65780601f106109bb576101008083540402835291602001916109e6565b820191906000526020600020905b8154815290600101906020018083116109c957829003601f168201915b505050505098508780546109f9906112cf565b80601f0160208091040260200160405190810160405280929190818152602001828054610a25906112cf565b8015610a725780601f10610a4757610100808354040283529160200191610a72565b820191906000526020600020905b815481529060010190602001808311610a5557829003601f168201915b50505050509750858054610a85906112cf565b80601f0160208091040260200160405190810160405280929190818152602001828054610ab1906112cf565b8015610afe5780601f10610ad357610100808354040283529160200191610afe565b820191906000526020600020905b815481529060010190602001808311610ae157829003601f168201915b50505050509550995099509950995099509950995099509950509193959799909294969850565b600082815260016020526040902060058101544210610b755760405162461bcd60e51b815260206004820152600c60248201526b159bdd1a5b99c8195b99195960a21b60448201526064016104b1565b33600090815260098201602052604090205460ff1615610bc75760405162461bcd60e51b815260206004820152600d60248201526c105b1c9958591e481d9bdd1959609a1b60448201526064016104b1565b33600090815260026020526040902054662386f26fc100001115610c225760405162461bcd60e51b81526020600482015260126024820152710a6e8c2d6ca40dad2dc40605c6062408aa8960731b60448201526064016104b1565b33600090815260026020526040812054610c4490662386f26fc100009061134f565b3360009081526009840160205260409020805460ff1916600117905590508215610c875780826006016000828254610c7c9190611371565b90915550610ca19050565b80826007016000828254610c9b9190611371565b90915550505b60408051858152336020820152841515818301526060810183905290517f7c2de587c00d75474a0c6c6fa96fd3b45dc974cd4e8a75f712bb84c950dce1b59181900360800190a150505050565b662386f26fc10000341015610d345760405162461bcd60e51b815260206004820152600c60248201526b09ad2dc40605c6062408aa8960a31b60448201526064016104b1565b3360009081526002602052604081208054349290610d53908490611371565b909155505060405134815233907f2da466a7b24304f47e87fa2e1e5a81b9831ce54fec19055ce277ca2f39ba42c49060200160405180910390a2565b3360009081526002602052604090205467016345785d8a00001115610df65760405162461bcd60e51b815260206004820152601c60248201527f4e656564206174206c6561737420302e3120455448207374616b65640000000060448201526064016104b1565b600354821115610e485760405162461bcd60e51b815260206004820152601b60248201527f496e73756666696369656e742074726561737572792066756e6473000000000060448201526064016104b1565b60008211610ea75760405162461bcd60e51b815260206004820152602660248201527f50726f706f73616c20616d6f756e74206d75737420626520677265617465722060448201526507468616e20360d41b60648201526084016104b1565b6000845111610ef05760405162461bcd60e51b81526020600482015260156024820152745469746c652063616e6e6f7420626520656d70747960581b60448201526064016104b1565b6000835111610f415760405162461bcd60e51b815260206004820152601760248201527f53756d6d6172792063616e6e6f7420626520656d70747900000000000000000060448201526064016104b1565b6000815111610f925760405162461bcd60e51b815260206004820152601b60248201527f41626f7574206f776e65722063616e6e6f7420626520656d707479000000000060448201526064016104b1565b600080549080610fa183611384565b909155505060008054815260016020526040902080610fc086826113eb565b5060018101610fcf85826113eb565b506002810183905560038101610fe583826113eb565b506004810180546001600160a01b03191633179055611007426203f480611371565b60058201556000546040517f9c770c289ab5bf7e57cb1d23c8ceae993aea46eb64847072fd3d78ca60d3e4329161103f9188906114aa565b60405180910390a15050505050565b60006020828403121561106057600080fd5b5035919050565b6000815180845260005b8181101561108d57602081850181015186830182015201611071565b506000602082860101526020601f19601f83011685010191505092915050565b610120815260006110c261012083018c611067565b82810360208401526110d4818c611067565b905089604084015282810360608401526110ee818a611067565b6001600160a01b03989098166080840152505060a081019490945260c084019290925260e0830152151561010090910152949350505050565b60006020828403121561113957600080fd5b81356001600160a01b038116811461115057600080fd5b9392505050565b6000806040838503121561116a57600080fd5b823591506020830135801515811461118157600080fd5b809150509250929050565b634e487b7160e01b600052604160045260246000fd5b600082601f8301126111b357600080fd5b813567ffffffffffffffff8111156111cd576111cd61118c565b604051601f8201601f19908116603f0116810167ffffffffffffffff811182821017156111fc576111fc61118c565b60405281815283820160200185101561121457600080fd5b816020850160208301376000918101602001919091529392505050565b6000806000806080858703121561124757600080fd5b843567ffffffffffffffff81111561125e57600080fd5b61126a878288016111a2565b945050602085013567ffffffffffffffff81111561128757600080fd5b611293878288016111a2565b93505060408501359150606085013567ffffffffffffffff8111156112b757600080fd5b6112c3878288016111a2565b91505092959194509250565b600181811c908216806112e357607f821691505b60208210810361130357634e487b7160e01b600052602260045260246000fd5b50919050565b634e487b7160e01b600052601160045260246000fd5b8181038181111561133257611332611309565b92915050565b808202811582820484141761133257611332611309565b60008261136c57634e487b7160e01b600052601260045260246000fd5b500490565b8082018082111561133257611332611309565b60006001820161139657611396611309565b5060010190565b601f8211156106ba57806000526020600020601f840160051c810160208510156113c45750805b601f840160051c820191505b818110156113e457600081556001016113d0565b5050505050565b815167ffffffffffffffff8111156114055761140561118c565b6114198161141384546112cf565b8461139d565b6020601f82116001811461144d57600083156114355750848201515b600019600385901b1c1916600184901b1784556113e4565b600084815260208120601f198516915b8281101561147d578785015182556020948501946001909201910161145d565b508482101561149b5786840151600019600387901b60f8161c191681555b50505050600190811b01905550565b8281526040602082015260006114c36040830184611067565b94935050505056fea2646970667358221220fbbffbbcaec832f819048896103c0e4eff21138c4ab1d3a7662e153ff2b78eb664736f6c634300081c0033",
  "linkReferences": {},
  "deployedLinkReferences": {}
}